S01100002E2E2F50726F746575732E73313966
S32D0000C000000000205DC2000011C3000017C300001DC3000023C3000029C3000000000000000000000000000073
S32D0000C028000000002FC3000035C30000000000003BC3000041C3000055120100611201006D1201007912010016
S32D0000C05085120100911201009D120100A9120100B5120100C1120100CD120100D9120100E5120100F1120100B6
S32D0000C078FD1201000913010015130100211301002D1301003913010045130100511301005D13010069130100D5
S32D0000C0A075130100811301008D13010099130100A5130100B1130100BD130100C9130100D5130100E1130100FC
S32D0000C0C8ED130100F913010005140100111401001D1401002914010035140100411401004D140100591401001C
S32D0000C0F06514010025990100711401007D1401008914010095140100A1140100AD140100B9140100C514010069
S32D0000C118D1140100DD140100E9140100F5140100011501000D1501001915010025150100311501003D150100DB
S32D0000C1404915010055150100611501006D150100296C01007915010085150100911501009D150100A915010034
S32D0000C168B5150100C1150100CD150100D9150100E5150100F1150100FD1501000916010015160100211601009C
S32D0000C1902D1601003916010045160100C9630100916201002D630100D90F010069640100511601005D1601004C
S32D0000C1B8691601001CD7020000000020D01600001CD702000000FF1F00000000D0160020B40600000000FF1FED
S32D0000C1E00000000080B489B000AFF860B9607A60BB68FB61FB68BB6100237B617A697B689A420BD2BA69131DFB
S32D0000C208BB61FB69191DF96112681A607B6904337B61EFE700BF2437BD4680BC704780B485B000AF786039609E
S32D0000C2307B68FB600023BB60BA683B689A4208D2FB681A1DFA6000221A60BB680433BB60F2E700BF1437BD46FE
S32D0000C25880BC704780B586B000AF72B6234B4CF220521A80214B4DF628121A80204B4FF4E9721A801F4B7B615F
S32D0000C2807B691F4A934214D27B691A1D7A611B683B617B691A1D7A611B68FB607B691A1D7A611B68BB60BA68E9
S32D0000C2A8F9683869FFF79AFFE6E77B69134A93420ED27B691A1D7A611B68FB607B691A1D7A611B68BB60B9688B
S32D0000C2D0F868FFF7A8FFECE70B4B7B600B4A7B681A6017F043FF62B604F03EFF04F030FEFEE700BF0E200540C2
S32D0000C2F800200540BCC10000D4C10000E4C1000008ED00E000C0000080B400AFFEE780B400AFFEE780B400AFF4
S32D0000C320FEE780B400AFFEE780B400AFFEE780B400AFFEE780B400AFFEE780B400AFFEE780B400AFFEE780B426
S32D0000C34800AFFEE7FFFFFFFFFFFFFFFFFFFFFFFFFFFFFFFFFFFFFFFFFFFFFFFFFFFFFFFFFFFFFFFFFFFFFFFF57
S32D0000C370FFFFFFFFFFFFFFFFFFFFFFFFFFFFFFFFFFFFFFFFFFFFFFFFFFFFFFFFFFFFFFFFFFFFFFFFFFFFFFFFC7
S32D0000C398FFFFFFFFFFFFFFFFFFFFFFFFFFFFFFFFFFFFFFFFFFFFFFFFFFFFFFFFFFFFFFFFFFFFFFFFFFFFFFFF9F
S32D0000C3C0FFFFFFFFFFFFFFFFFFFFFFFFFFFFFFFFFFFFFFFFFFFFFFFFFFFFFFFFFFFFFFFFFFFFFFFFFFFFFFFF77
S32D0000C3E8FFFFFFFFFFFFFFFFFFFFFFFFFFFFFFFFFFFFFFFFFFFFFFFFFFFFFFFFFFFFFFFFFFFFFFFFFEFFFFFF50
S32D0000C44010B5054C237833B9044B13B10448AFF300800123237010BDD0160020000000008CD5020008B5034BB8
S32D0000C4681BB103490348AFF3008008BD00000000D41600208CD5020084B080B500AF07F1080C8CE80F00D7F879
S32D0000C490F430002B05D0084907F108000CF014FE04E0064907F108000CF00EFE00BFBD46BDE8804004B070472E
S32D0000C4B80CA9020014A90200B0B5ADF5EB6D06AF002185480BF0CBF907F2446300241D46002C05DB28460CF082
S32D0000C4E018FCEC35013CF7E707F5E863A3F588737C4A1C4615460FCD0FC42B68236007F24460794B05934FF480
S32D0000C5080043049307F5C66303930123029301230193C92300930123012201210CF0C4FE07F2446318460CF05F
S32D0000C53077FC07F1A80305241D46002C05DB28460CF0E7FBEC35013CF7E707F5E863A3F5E763664A1846114619
S32D0000C558A0231A4618F07CF907F1A800604B05936FF07F43049307F108030393012302930123019314230093A6
S32D0000C5802823022204210CF093FE4FF4004154480BF0C5F9DE23DC22554951480BF0D2F951494F480BF0BBF9B7
S32D0000C5A8DE23002251494C480BF0C8F90A2150480AF0BCFC0023C7F83C374FF00003C7F834374FF00003C7F821
S32D0000C5D03037D7F83C37002B7AD1D7F83417D7F8300716F00BFA03461C4644480DF040F803461946204616F073
S32D0000C5F8F9F80346C7F830374FF07E51D7F8340716F0F0F80346C7F83437D7F83417D7F8300716F0A3FA034630
S32D0000C620C7F83037DE234822D7F830172C480BF0ADF93A463B1D194629480BF041FA0346002BC6D00023C7F866
S32D0000C6483837D7F83837072BBFDC07F1A802D7F83837EC2101FB03F3D01807F5E863A3F23C73196807F5E86330
S32D0000C670A3F5E8631A6800230CF060FC0346002B14BF01230023DBB2002B1AD0D7F838370133C7F83C3707F1F0
S32D0000C698A802D7F83837EC2101FB03F3D01807F5E863A3F23C73196807F5E863A3F5E8631B681A460CF0DCFCB8
S32D0000C6C005E0D7F838370133C7F83837BDE780E7D7F83C37184607F5E867BD46B0BD00BFDC19002038A90200AA
S32D0000C6E800D7FF004CA902001CA9020028A90200D8190020281A0020B0B5ADF5066D06AF07F63403AC4A0021D0
S32D0000C710184604F0B1FF07F62C03A94A0121184604F0AAFF07F62403A54A0221184604F0A3FF07F61C03A24A8B
S32D0000C7380321184604F09CFF0021A0480BF08FF807F5E66300241D46002C05DB28460CF0DCFAEC35013CF7E7E3
S32D0000C76007F64803A3F59673974A1C4615460FCD0FC42B68236007F5E660944B05936FF07F43049307F21C7366
S32D0000C78803930123029301230193C92300930123012201210CF088FD07F5C66300241D46002C05DB28460CF0F1
S32D0000C7B0B0FAEC35013CF7E707F64803A3F50B73834A1C4615460FCD0FC42B68236007F5C6607E4B05936FF0E6
S32D0000C7D87F43049307F21C6303934FF48273029301230193C92300930123012201210CF05BFD07F51B7303245A
S32D0000C8001D46002C05DB28460CF083FAEC35013CF7E707F64803A3F22C636E4A1846114650231A4618F018F8B4
S32D0000C82807F51B70674B0593FF23049307F5077303933C23029301230193012300932823022202210CF030FD2E
S32D0000C85007F1440301241D46002C05DB28460CF058FAEC35013CF7E707F64803A3F62C03594A1C4615460FCDA3
S32D0000C8780FC40FCD0FC495E8030084E8030007F14400504B05934FF47F03049307F11C0303930123029340F2BE
S32D0000C8A005130193012300932823012202210CF0FFFC0A2149480AF03DFB0123C7F8443807F64803A3F644030A
S32D0000C8C81A460023136053609360D360D7F84438012B40F06C8107F1140207F11803194636480BF0E9F80346BC
S32D0000C8F0002BEFD00023C7F84038D7F84038032B6EDC07F51B72D7F84038EC2101FB03F3D01807F64803A3F580
S32D0000C9180363196807F64803A3F634031A6800230CF008FB0346002B14BF01230023DBB2002B3BD007F64803B5
S32D0000C940A3F64403D7F8402853F82230002B09D107F64803A3F64403D7F84028012143F8221012E007F64803E8
S32D0000C968A3F64403D7F8402853F82230002B08D007F64803A3F64403D7F84028002143F8221007F51B72D7F8A5
S32D0000C9904038EC2101FB03F3D01807F64803A3F50363196807F64803A3F634031B681A460CF062FBD7F84038B8
S32D0000C9B80133C7F840389CE70000A040DC190020ECA9020000D7FF0000AA020014AA020064AA0200D819002074
S32D0000C9E00023C7F83C38D7F83C38012B00F3B88007F14402D7F83C38EC2101FB03F3D01807F64803A3F503638B
S32D0000CA08196807F64803A3F634031A6800230CF091FA0346002B14BF01230023DBB2002B00F0948007F64803A9
S32D0000CA30A3F644031B68012B10D1D7F83C386FF0630202FB03F33233184615F083FF024607F6340311461846F3
S32D0000CA5804F08EFE07F64803A3F644035B68012B10D1D7F83C386FF0630202FB03F33233184615F06BFF0246C4
S32D0000CA8007F62C031146184604F076FE07F64803A3F644039B68012B10D1D7F83C386FF0630202FB03F33233A8
S32D0000CAA8184615F053FF024607F624031146184604F05EFE07F64803A3F64403DB68012B10D1D7F83C386FF020
S32D0000CAD0630202FB03F33233184615F03BFF024607F61C031146184604F046FE07F14402D7F83C38EC2101FB03
S32D0000CAF803F3D01807F64803A3F50363196807F64803A3F634031B681A460CF0B1FA07F14402D7F83C38EC213B
S32D0000CB2001FB03F3134418460CF0C2F907F63403184604F0DFFD07F62C03184604F0DAFD07F62403184604F05C
S32D0000CB48D5FD07F61C03184604F0D0FDD7F83C380133C7F83C3842E707F64803A3F50363196807F64803A3F637
S32D0000CB7034031A6807F5C66000230CF0DFF90346002B14BF01230023DBB2002B3FF4A2AE07F64803A3F50363B6
S32D0000CB98196807F64803A3F634031A6807F5C66318460CF065FA0023C7F844388EE6D7F84438184607F64807AF
S32D0000CBC0BD46B0BDB0B5ADF55B6D06AF07F67C53002118460AF022FA07F55763012118460AF01CFA07F66453F8
S32D0000CBE8022118460AF016FA07F65853032118460AF010FA07F64C53042118460AF00AFA07F554630521184612
S32D0000CC100AF004FA07F63453062118460AF0FEF907F62853072118460AF0F8F90021B7480AF019FE07F63C436E
S32D0000CC3800241D46002C05DB28460CF066F8EC35013CF7E707F69853A3F5B873AE4A1C4615460FCD0FC42B6895
S32D0000CC60236007F63C40AB4B05936FF07F43049307F6284303930123029301230193C92300930123012201210D
S32D0000CC880CF012FB07F63C3300241D46002C05DB28460CF03AF8EC35013CF7E707F69853A3F51C739A4A1C4649
S32D0000CCB015460FCD0FC42B68236007F63C30954B05936FF07F43049307F6283303934FF482730293012301932A
S32D0000CCD8C92300930123012201210CF0E5FA07F5727307241D46002C05DB28460CF00DF8EC35013CF7E707F648
S32D0000CD009853A3F52763854A18461146A0231A4617F0A2FD07F572707E4B0593FF23049307F54A7303933C2305
S32D0000CD28029301230193012300932823022204210CF0BAFA07F5A87301241D46002C05DB28460BF0E2FFEC357F
S32D0000CD50013CF7E707F69853A3F54763704A1C4615460FCD0FC40FCD0FC495E8030084E8030007F5A870674BE6
S32D0000CD7805934FF47F03049307F5947303930123029340F205130193292300932823012202210CF089FA07F182
S32D0000CDA03C0300241D46002C05DB28460BF0B1FFEC35013CF7E707F69853A3F55763594A1C4615460FCD0FC4F5
S32D0000CDC82B68236007F13C00504B05934FF47F03049307F1280303930123029340F20513019304230093C62371
S32D0000CDF0012201210CF05CFA0A214B480AF09AF80223C7F8943D0023C7F8883D07F69853A3F6985318462023CB
S32D0000CE181A46002117F032FED7F8943D022B40F0BA8107F1200207F12403194635480AF043FE0346002BEFD079
S32D0000CE400023C7F8903DD7F8903D072B6EDC07F57272D7F8903DEC2101FB03F3D01807F69853A3F674531968D1
S32D0000CE6807F69853A3F678531A6800230CF062F80346002B14BF01230023DBB2002B3BD007F69853A3F6985398
S32D0000CE90D7F8902D53F82230002B09D107F69853A3F69853D7F8902D012143F8221012E007F69853A3F6985361
S32D0000CEB8D7F8902D53F82230002B08D007F69853A3F69853D7F8902D002143F8221007F57272D7F8903DEC2111
S32D0000CEE001FB03F3D01807F69853A3F67453196807F69853A3F678531B681A460CF0BCF8D7F8903D0133C7F813
S32D0000CF08903D9CE7DC1900208CAA020000D7FF0000AA0200A0AA020064AA020040AB0200D81900200023C7F8A0
S32D0000CF308C3DD7F88C3D012B00F3068107F5A872D7F88C3DEC2101FB03F3D01807F69853A3F67453196807F671
S32D0000CF589853A3F678531A6800230BF0EBFF0346002B14BF01230023DBB2002B00F0E28007F5A872D7F88C3D8C
S32D0000CF80EC2101FB03F3D01807F69853A3F67453196807F69853A3F678531A6801230BF0CDFF0346002B14BFD3
S32D0000CFA801230023DBB2002B00F0B98007F1200207F1240319467B480AF07EFDD7F8883D5A1CD7F88C3D5B0066
S32D0000CFD0D31AC7F8883DD7F8883D002B03DA0023C7F8883D06E0D7F8883DB42B02DDB423C7F8883D07F13C03B5
S32D0000CFF8D7F8881D18460CF01BF907F69853A3F698531B68012B0AD1D7F8880D15F09EFC024607F67C531146C5
S32D0000D02018460AF017F807F69853A3F698535B68012B0AD1D7F8880D15F08CFC024607F55763114618460AF0A7
S32D0000D04805F807F69853A3F698539B68012B0AD1D7F8880D15F07AFC024607F664531146184609F0F3FF07F6CF
S32D0000D0709853A3F69853DB68012B0AD1D7F8880D15F068FC024607F658531146184609F0E1FF07F69853A3F60D
S32D0000D09898531B69012B0AD1D7F8880D15F056FC024607F64C531146184609F0CFFF07F69853A3F698535B69A9
S32D0000D0C0012B0AD1D7F8880D15F044FC024607F554631146184609F0BDFF07F69853A3F698539B69012B0AD1B6
S32D0000D0E8D7F8880D15F032FC024607F634531146184609F0ABFF07F69853A3F69853DB69012B7FF435AFD7F85D
S32D0000D110880D15F01FFC024607F628531146184609F098FF28E707F5A872D7F88C3DEC2101FB03F313441846C6
S32D0000D1380BF0BAFED7F88C3D0133C7F88C3DF4E607F69853A3F67453196807F69853A3F678531A6807F63C30E8
S32D0000D16000230BF0EBFE0346002B14BF01230023DBB2002B3FF454AE07F69853A3F67453196807F69853A3F6D5
S32D0000D18878531A6807F63C3318460BF071FF0023C7F8943D40E6D7F8943D184607F69857BD46B0BDDC190020AF
S32D0000D1B0B0B5ADF58E4D9EB038AF07F58D4303F104030021184608F003FF07F58D430121184608F0FDFE07F5BF
S32D0000D1D88C4303F17C030221184608F0F5FE07F58C4303F178030321184608F0EDFE07F58C4303F17403042181
S32D0000D200184608F0E5FE07F58C4303F170030521184608F0DDFE07F58C4303F16C030621184608F0D5FE07F5C4
S32D0000D2288C4303F168030721184608F0CDFE07F58C4303F164030821184608F0C5FE07F58C4303F160030921AD
S32D0000D250184608F0BDFE07F58C4303F15C030A21184608F0B5FE07F58C4303F158030B21184608F0ADFE07F50A
S32D0000D2788C4303F154030C21184608F0A5FE07F58C4303F150030D21184608F09DFE07F58C4303F14C030E21DA
S32D0000D2A0184608F095FE07F58C4303F148030F21184608F08DFE07F58C4303F144031021184608F085FE07F550
S32D0000D2C88C4303F140031121184608F07DFE07F58C4303F13C031221184608F075FE07F58C4303F13803132107
S32D0000D2F0184608F06DFE07F58C4303F134031421184608F065FE07F58C4303F130031521184608F05DFE07F596
S32D0000D3188C4303F12C031621184608F055FE07F58C4303F128031721184608F04DFE07F58C4303F12403182133
S32D0000D340184608F045FE07F58C4303F120031921184608F03DFE07F58C4303F11C031A21184608F035FE07F5DB
S32D0000D3688C4303F118031B21184608F02DFE07F58C4303F114031C21184608F025FE07F58C4303F110031D2160
S32D0000D390184608F01DFE07F58C4303F10C031E21184608F015FE07F58C4303F108031F21184608F00DFE0021FC
S32D0000D3B8C6480AF054FA07F58A4303F11C0300241D46002C05DB28460BF09FFCEC35013CF7E707F58D4303F182
S32D0000D3E01803A3F5C873BC4A1C4615460FCD0FC42B68236007F58A4000F11C00B74B05936FF07F43049307F588
S32D0000D4088A4303F1080303930123029301230193C92300930123012201210BF045FF07F5884303F11C030024FE
S32D0000D4301D46002C05DB28460BF06BFCEC35013CF7E707F58D4303F11803A3F52473A44A1C4615460FCD0FC4EF
S32D0000D4582B68236007F5884000F11C009D4B05936FF07F43049307F5884303F1080303934FF48273029301233A
S32D0000D4800193C92300930123012201210BF010FF07F5804303F1580303241D46002C05DB28460BF036FCEC3598
S32D0000D4A8013CF7E707F58D4303F11803A3F5D2638A4A1846114650231A4617F0C9F907F5804000F15800834B9B
S32D0000D4D005934FF47F03049307F5804303F1080303930123029301230193A12300932823042201210BF0DCFEB6
S32D0000D4F807F5455303F11803103B0F241D46002C05DB28460BF001FCEC35013CF7E707F55A5303F11803A3F584
S32D0000D520D263714A184611464FF4A0731A4617F093F907F5055303F11803103B0F241D46002C05DB28460BF036
S32D0000D548E4FBEC35013CF7E707F51A5303F11803A3F5D263634A184611464FF4A0731A4617F076F907F58A53EE
S32D0000D57003F11803103B0F241D46002C05DB28460BF0C7FBEC35013CF7E707F5B45303F11803A3F5D263564AAB
S32D0000D598184611464FF4A0731A4617F059F907F5CC73503B0F241D46002C05DB28460BF0ACFBEC35013CF7E7ED
S32D0000D5C007F5D363A3F5D2634A4A184611464FF4A0731A4617F040F90A21474809F0AAFC032307F58D4202F1C2
S32D0000D5E814021360002307F58D4202F11002136007F58D4303F114031B68032B40F0D38407F58D4303F1100344
S32D0000D6101B68032B00F2898001A252F823F000BF31D6000067D600009DD60000FDD6000007F5455000F118005D
S32D0000D6381038284B0593FF23049307F5405303F11803103B039301230293012301930123009350230422042153
S32D0000D6600BF026FE61E007F5055000F1180010381A4B0593FF23049307F5005303F11803103B039301230293EC
S32D0000D68801230193012300935023042204210BF00BFE46E007F58A5000F1180010380D4B0593FF23049307F551
S32D0000D6B0805303F11803103B03930123029301230193012300935023042204210BF0F0FD2BE000BFDC190020DC
S32D0000D6D854AB020000D7FF0000AA020068AB0200B8AB0200F8AC020038AE020078AF0200D819002007F5CC7027
S32D0000D7005038854B0593FF23049307F11803103B03930123029301230193012300935023042204210BF0C4FDBC
S32D0000D72800BF07F58D4303F110031B6807F58D4202F10802136007F58D4303F110031A6807F58D4303F1080363
S32D0000D7501B689A427FF450AF07F58D4303F110031B68002B40F0DA8007F58D4303F10403184608F009FD034663
S32D0000D77807F55A5202F11802A2F5AA643793684604F57073DC22194617F062F804F56C730FCBFEF771FE07F505
S32D0000D7A08D43184608F0F0FC034607F55A5202F11802A2F5AA643793684604F2AC43DC22194617F049F804F2AE
S32D0000D7C89C430FCBFEF758FE07F58C4303F17C03184608F0D5FC034607F55A5202F11802A2F5AA6437936846AF
S32D0000D7F004F5B363DC22194617F02EF804F5B1630FCBFEF73DFE07F58C4303F17803184608F0BAFC034607F5D0
S32D0000D8185A5202F11802A2F5AA643793684604F28463DC22194617F013F804F274630FCBFEF722FE07F58C4339
S32D0000D84003F17403184608F09FFC034607F55A5202F11802A2F5AA643793684604F53263DC22194616F0F8FF5B
S32D0000D86804F531630FCBFEF707FE07F58C4303F17003184608F084FC034607F55A5202F11802A2F5AA643793BC
S32D0000D890684604F60C43DC22194616F0DDFF04F6FC330FCBFEF7ECFD07F58C4303F16C03184608F069FC034621
S32D0000D8B807F55A5202F11802A2F5AA643793684604F6F843DC22194616F0C2FF04F6E8430FCBFEF7D1FD07F559
S32D0000D8E08C4303F16803184608F04EFC034607F55A5202F11802A2F5AA643793684604F6E453DC22194616F09D
S32D0000D908A7FF04F6D4530FCBFEF7B6FD94E200BF00D7FF0007F58D4303F110031B68012B40F0D98007F58C43C7
S32D0000D93003F16403184608F027FC034607F51A5202F11802A2F5AA643793684604F57073DC22194616F080FF5C
S32D0000D95804F56C730FCBFEF78FFD07F58C4303F16003184608F00CFC034607F51A5202F11802A2F5AA643793C1
S32D0000D980684604F2AC43DC22194616F065FF04F29C430FCBFEF774FD07F58C4303F15C03184608F0F1FB034661
S32D0000D9A807F51A5202F11802A2F5AA643793684604F5B363DC22194616F04AFF04F5B1630FCBFEF759FD07F5D6
S32D0000D9D08C4303F15803184608F0D6FB034607F51A5202F11802A2F5AA643793684604F28463DC22194616F0C9
S32D0000D9F82FFF04F274630FCBFEF73EFD07F58C4303F15403184608F0BBFB034607F51A5202F11802A2F5AA6477
S32D0000DA203793684604F53263DC22194616F014FF04F531630FCBFEF723FD07F58C4303F15003184608F0A0FBDD
S32D0000DA48034607F51A5202F11802A2F5AA643793684604F60C43DC22194616F0F9FE04F6FC330FCBFEF708FD35
S32D0000DA7007F58C4303F14C03184608F085FB034607F51A5202F11802A2F5AA643793684604F6F843DC22194637
S32D0000DA9816F0DEFE04F6E8430FCBFEF7EDFC07F58C4303F14803184608F06AFB034607F51A5202F11802A2F587
S32D0000DAC0AA643793684604F6E453DC22194616F0C3FE04F6D4530FCBFEF7D2FCB0E107F58D4303F110031B68B8
S32D0000DAE8022B40F0D98007F58C4303F14403184608F046FB034607F5B45202F11802A2F5AA643793684604F54F
S32D0000DB107073DC22194616F09FFE04F56C730FCBFEF7AEFC07F58C4303F14003184608F02BFB034607F5B452EA
S32D0000DB3802F11802A2F5AA643793684604F2AC43DC22194616F084FE04F29C430FCBFEF793FC07F58C4303F1D9
S32D0000DB603C03184608F010FB034607F5B45202F11802A2F5AA643793684604F5B363DC22194616F069FE04F5B0
S32D0000DB88B1630FCBFEF778FC07F58C4303F13803184608F0F5FA034607F5B45202F11802A2F5AA643793684664
S32D0000DBB004F28463DC22194616F04EFE04F274630FCBFEF75DFC07F58C4303F13403184608F0DAFA034607F561
S32D0000DBD8B45202F11802A2F5AA643793684604F53263DC22194616F033FE04F531630FCBFEF742FC07F58C4368
S32D0000DC0003F13003184608F0BFFA034607F5B45202F11802A2F5AA643793684604F60C43DC22194616F018FE89
S32D0000DC2804F6FC330FCBFEF727FC07F58C4303F12C03184608F0A4FA034607F5B45202F11802A2F5AA6437930A
S32D0000DC50684604F6F843DC22194616F0FDFD04F6E8430FCBFEF70CFC07F58C4303F12803184608F089FA03465E
S32D0000DC7807F5B45202F11802A2F5AA643793684604F6E453DC22194616F0E2FD04F6D4530FCBFEF7F1FBCFE054
S32D0000DCA007F58D4303F110031B68032B40F0C88007F58C4303F12403184608F065FA034607F5D362A2F5AA64A0
S32D0000DCC83793684604F57073DC22194616F0C0FD04F56C730FCBFEF7CFFB07F58C4303F12003184608F04CFACB
S32D0000DCF0034607F5D362A2F5AA643793684604F2AC43DC22194616F0A7FD04F29C430FCBFEF7B6FB07F58C4363
S32D0000DD1803F11C03184608F033FA034607F5D362A2F5AA643793684604F5B363DC22194616F08EFD04F5B163A6
S32D0000DD400FCBFEF79DFB07F58C4303F11803184608F01AFA034607F5D362A2F5AA643793684604F28463DC2298
S32D0000DD68194616F075FD04F274630FCBFEF784FB07F58C4303F11403184608F001FA034607F5D362A2F5AA6455
S32D0000DD903793684604F53263DC22194616F05CFD04F531630FCBFEF76BFB07F58C4303F11003184608F0E8F9D8
S32D0000DDB8034607F5D362A2F5AA643793684604F60C43DC22194616F043FD04F6FC330FCBFEF752FB07F58C43AA
S32D0000DDE003F10C03184608F0CFF9034607F5D362A2F5AA643793684604F6F843DC22194616F02AFD04F6E84379
S32D0000DE080FCBFEF739FB07F58C4303F10803184608F0B6F9034607F5D362A2F5AA643793684604F6E453DC2254
S32D0000DE30194616F011FD04F6D4530FCBFEF720FB07F11802183A07F11803143B19465D4809F036FE0346002BDB
S32D0000DE583FF471AC002307F58D4202F10C02136007F58D4303F10C031B68032B61DC07F5804202F1580207F526
S32D0000DE808D4303F10C031B68EC2101FB03F3D01807F5D363A3F29463196807F5D363A3F5D3631A6800230BF058
S32D0000DEA849F80346002B14BF01230023DBB2002B33D007F5804202F1580207F58D4303F10C031B68EC2101FB5C
S32D0000DED003F3D01807F5D363A3F29463196807F5D363A3F5D3631B681A460BF0C5F807F5804202F1580207F565
S32D0000DEF88D4303F10C031B68EC2101FB03F3134418460AF0D1FF07F58D4303F10C031B6807F58D4202F1100206
S32D0000DF20136007F58D4303F10C031B68013307F58D4202F10C02136096E707F5D363A3F29463196807F5D363AD
S32D0000DF48A3F5D3631A6807F5884000F11C0000230AF0F0FF0346002B14BF01230023DBB2002B3FF4E8AB07F576
S32D0000DF70D363A3F29463196807F5D363A3F5D3631A6807F5884303F11C0318460BF074F8002307F58D4202F13E
S32D0000DF98140213604FF0FF3307F58D4202F110021360FFF7C8BB07F58D4303F114031B68184607F58D471837CE
S32D0000DFC0BD46B0BDDC190020B0B5ADF58E4D8CB006AF07F58E4303F104030021184607F0F7FF07F58E430121B8
S32D0000DFE8184607F0F1FF07F58D4303F17C030221184607F0E9FF07F58D4303F178030321184607F0E1FF07F597
S32D0000E0108D4303F174030421184607F0D9FF07F58D4303F170030521184607F0D1FF07F58D4303F16C03062181
S32D0000E038184607F0C9FF07F58D4303F168030721184607F0C1FF07F58D4303F164030821184607F0B9FF07F5DC
S32D0000E0608D4303F160030921184607F0B1FF07F58D4303F15C030A21184607F0A9FF07F58D4303F158030B21AE
S32D0000E088184607F0A1FF07F58D4303F154030C21184607F099FF07F58D4303F150030D21184607F091FF07F522
S32D0000E0B08D4303F14C030E21184607F089FF07F58D4303F148030F21184607F081FF07F58D4303F144031021DB
S32D0000E0D8184607F079FF07F58D4303F140031121184607F071FF07F58D4303F13C031221184607F069FF07F568
S32D0000E1008D4303F138031321184607F061FF07F58D4303F134031421184607F059FF07F58D4303F13003152107
S32D0000E128184607F051FF07F58D4303F12C031621184607F049FF07F58D4303F128031721184607F041FF07F5AD
S32D0000E1508D4303F124031821184607F039FF07F58D4303F120031921184607F031FF07F58D4303F11C031A2134
S32D0000E178184607F029FF07F58D4303F118031B21184607F021FF07F58D4303F114031C21184607F019FF07F5F3
S32D0000E1A08D4303F110031D21184607F011FF07F58D4303F10C031E21184607F009FF07F58D4303F108031F2161
S32D0000E1C8184607F001FF07F58D4303F104030021184608F091F907F58D430121184608F08BF907F58C4303F185
S32D0000E1F07C030221184608F083F907F58C4303F178030321184608F07BF907F58C4303F174030421184608F0B4
S32D0000E21873F907F58C4303F170030521184608F06BF907F58C4303F16C030621184608F063F907F58C4303F194
S32D0000E24068030721184608F05BF907F58C4303F164030821184608F053F907F58C4303F160030921184608F0E0
S32D0000E2684BF907F58C4303F15C030A21184608F043F907F58C4303F158030B21184608F03BF907F58C4303F1DA
S32D0000E29054030C21184608F033F907F58C4303F150030D21184608F02BF907F58C4303F14C030E21184608F00D
S32D0000E2B823F907F58C4303F148030F21184608F01BF907F58C4303F144031021184608F013F907F58C4303F120
S32D0000E2E040031121184608F00BF907F58C4303F13C031221184608F003F907F58C4303F138031321184608F03A
S32D0000E308FBF807F58C4303F134031421184608F0F3F807F58C4303F130031521184608F0EBF807F58C4303F168
S32D0000E3302C031621184608F0E3F807F58C4303F128031721184608F0DBF807F58C4303F124031821184608F068
S32D0000E358D3F807F58C4303F120031921184608F0CBF807F58C4303F11C031A21184608F0C3F807F58C4303F1AE
S32D0000E38018031B21184608F0BBF807F58C4303F114031C21184608F0B3F807F58C4303F110031D21184608F095
S32D0000E3A8ABF807F58C4303F10C031E21184608F0A3F807F58C4303F108031F21184608F09BF80021C64809F08B
S32D0000E3D04AFA07F58A4303F11C0300241D46002C05DB28460AF095FCEC35013CF7E707F58E4303F11803A3F5C3
S32D0000E3F80473BC4A1C4615460FCD0FC42B68236007F58A4000F11C00B74B05936FF07F43049307F58A4303F116
S32D0000E420080303930123029301230193C92300930123012201210AF03BFF07F5884303F11C0300241D46002C13
S32D0000E44805DB28460AF061FCEC35013CF7E707F58E4303F11803A3F54473A44A1C4615460FCD0FC42B6823602A
S32D0000E47007F5884000F11C009D4B05936FF07F43049307F5884303F1080303934FF48273029301230193C923A8
S32D0000E49800930123012201210AF006FF07F5804303F1580303241D46002C05DB28460AF02CFCEC35013CF7E7EB
S32D0000E4C007F58E4303F11803A3F5E2638A4A1846114650231A4616F0BFF907F5804000F15800834B05934FF4AD
S32D0000E4E87F03049307F5804303F1080303930123029301230193A12300932823042201210AF0D2FE07F54553E0
S32D0000E51003F11803103B0F241D46002C05DB28460AF0F7FBEC35013CF7E707F55C5303F11803A3F5E263714AF9
S32D0000E538184611464FF4A0731A4616F089F907F5055303F11803103B0F241D46002C05DB28460AF0DAFBEC3514
S32D0000E560013CF7E707F51C5303F11803A3F5E263634A184611464FF4A0731A4616F06CF907F58A5303F11803B0
S32D0000E588103B0F241D46002C05DB28460AF0BDFBEC35013CF7E707F5B85303F11803A3F5E263564A18461146D4
S32D0000E5B04FF4A0731A4616F04FF907F5CC73503B0F241D46002C05DB28460AF0A2FBEC35013CF7E707F5E3634E
S32D0000E5D8A3F5E2634A4A184611464FF4A0731A4616F036F90A21474808F0A0FC042307F58E4202F11402136047
S32D0000E600002307F58E4202F11002136007F58E4303F114031B68042B40F0D18307F58E4303F110031B68032BF2
S32D0000E62800F2898001A252F823F000BF45E600007BE60000B1E6000011E7000007F5455000F118001038284B9A
S32D0000E6500593FF23049307F5405303F11803103B03930123029301230193012300935023042204210AF01CFED2
S32D0000E67861E007F5055000F1180010381A4B0593FF23049307F5005303F11803103B039301230293012301932B
S32D0000E6A0012300935023042204210AF001FE46E007F58A5000F1180010380D4B0593FF23049307F5805303F125
S32D0000E6C81803103B03930123029301230193012300935023042204210AF0E6FD2BE000BFDC190020B8B002001C
S32D0000E6F000D7FF0000AA020068AB0200B8AB0200F8AC020038AE020078AF0200D819002007F5CC705038B54B78
S32D0000E7180593FF23049307F11803103B03930123029301230193012300935023042204210AF0BAFD00BF07F53C
S32D0000E7408E4303F110031B6807F58E4202F10802136007F58E4303F110031A6807F58E4303F108031B689A4293
S32D0000E7687FF450AF07F58E4303F110031B68002B40F0978007F58D4303F10403184607F0CBFE024607F5455387
S32D0000E79003F11803103B03F56C73114618460AF0C5FC07F58D43184607F0BAFE024607F5455303F11803103BAB
S32D0000E7B803F29C43114618460AF0B4FC07F58C4303F17C03184607F0A7FE024607F5455303F11803103B03F59A
S32D0000E7E0B163114618460AF0A1FC07F58C4303F17803184607F094FE024607F5455303F11803103B03F2746388
S32D0000E808114618460AF08EFC07F58C4303F17403184607F081FE024607F5455303F11803103B03F53163114686
S32D0000E83018460AF07BFC07F58C4303F17003184607F06EFE024607F5455303F11803103B03F6FC3311461846E5
S32D0000E8580AF068FC07F58C4303F16C03184607F05BFE024607F5455303F11803103B03F6E843114618460AF04F
S32D0000E88055FC07F58C4303F16803184607F048FE024607F5455303F11803103B03F6D453114618460AF042FC11
S32D0000E8A8D3E107F58E4303F110031B68012B40F09B8007F58C4303F16403184607F02CFE024607F5055303F18B
S32D0000E8D01803103B03F56C73114618460AF026FC07F58C4303F16003184607F019FE024607F5055303F11803D3
S32D0000E8F8103B03F29C43114618460AF013FC07F58C4303F15C03184607F006FE024607F5055303F11803103BA8
S32D0000E92003F5B163114618460AF000FC07F58C4303F15803184607F0F3FD024607F5055303F11803103B03F2C8
S32D0000E9487463114618460AF0EDFB07F58C4303F15403184607F0E0FD024607F5055303F11803103B03F5316369
S32D0000E970114618460AF0DAFB07F58C4303F15003184607F0CDFD024607F5055303F11803103B03F6FC3311464F
S32D0000E99818460AF0C7FB07F58C4303F14C03184607F0BAFD024607F5055303F11803103B03F6E843114618464E
S32D0000E9C00AF0B4FB07F58C4303F14803184607F0A7FD024607F5055303F11803103B03F6D453114618460AF0B8
S32D0000E9E8A1FB32E100D7FF0007F58E4303F110031B68022B40F0998007F58C4303F14403184607F089FD024686
S32D0000EA1007F58A5303F11803103B03F56C73114618460AF083FB07F58C4303F14003184607F076FD024607F593
S32D0000EA388A5303F11803103B03F29C43114618460AF070FB07F58C4303F13C03184607F063FD024607F58A53B7
S32D0000EA6003F11803103B03F5B163114618460AF05DFB07F58C4303F13803184607F050FD024607F58A5303F16A
S32D0000EA881803103B03F27463114618460AF04AFB07F58C4303F13403184607F03DFD024607F58A5303F1180385
S32D0000EAB0103B03F53163114618460AF037FB07F58C4303F13003184607F02AFD024607F58A5303F11803103B97
S32D0000EAD803F6FC33114618460AF024FB07F58C4303F12C03184607F017FD024607F58A5303F11803103B03F64F
S32D0000EB00E843114618460AF011FB07F58C4303F12803184607F004FD024607F58A5303F11803103B03F6D45326
S32D0000EB28114618460AF0FEFA8FE007F58E4303F110031B68032B40F0888007F58C4303F12403184607F0E8FCCD
S32D0000EB50024607F5CC73503B03F56C73114618460AF0E4FA07F58C4303F12003184607F0D7FC024607F5CC7398
S32D0000EB78503B03F29C43114618460AF0D3FA07F58C4303F11C03184607F0C6FC024607F5CC73503B03F5B16385
S32D0000EBA0114618460AF0C2FA07F58C4303F11803184607F0B5FC024607F5CC73503B03F27463114618460AF073
S32D0000EBC8B1FA07F58C4303F11403184607F0A4FC024607F5CC73503B03F53163114618460AF0A0FA07F58C43FB
S32D0000EBF003F11003184607F093FC024607F5CC73503B03F6FC33114618460AF08FFA07F58C4303F10C03184672
S32D0000EC1807F082FC024607F5CC73503B03F6E843114618460AF07EFA07F58C4303F10803184607F071FC02462C
S32D0000EC4007F5CC73503B03F6D453114618460AF06DFA07F11802183A07F11803143B19465C4808F02DFF034674
S32D0000EC68002B3FF472AD002307F58E4202F10C02136007F58E4303F10C031B68032B61DC07F5804202F15802D5
S32D0000EC9007F58E4303F10C031B68EC2101FB03F3D01807F5E363A3F21473196807F5E363A3F5E3631A68002378
S32D0000ECB80AF040F90346002B14BF01230023DBB2002B33D007F5804202F1580207F58E4303F10C031B68EC2147
S32D0000ECE001FB03F3D01807F5E363A3F21473196807F5E363A3F5E3631B681A460AF0BCF907F5804202F1580290
S32D0000ED0807F58E4303F10C031B68EC2101FB03F3134418460AF0C8F807F58E4303F10C031B6807F58E4202F10A
S32D0000ED301002136007F58E4303F10C031B68013307F58E4202F10C02136096E707F5E363A3F21473196807F511
S32D0000ED58E363A3F5E3631A6807F5884000F11C0000230AF0E7F80346002B14BF01230023DBB2002B3FF4E9AC0C
S32D0000ED8007F5E363A3F21473196807F5E363A3F5E3631A6807F5884303F11C0318460AF06BF9002307F58E425F
S32D0000EDA802F1140213604FF0FF3307F58E4202F110021360C9E407F58E4303F114031B68184607F58E47183786
S32D0000EDD0BD46B0BDDC190020B0B5ADF5136D06AF0021654808F03FFD07F61C0300241D46002C05DB284609F03C
S32D0000EDF88CFFEC35013CF7E707F61813A3F588735C4A1C4615460FCD0FC42B68236007F61C00594B05936FF08F
S32D0000EE207F43049307F6080303930123029301230193C92300930123012201210AF038FA07F21C7300241D4639
S32D0000EE48002C05DB284609F060FFEC35013CF7E707F61813A3F50473484A1C4615460FCD0FC42B68236007F24A
S32D0000EE701C70434B05936FF07F43049307F5E16303934FF48273029301230193C92300930123012201210AF0CD
S32D0000EE980BFA07F2444302241D46002C05DB284609F033FFEC35013CF7E707F61813A3F5A263334A1C4615465E
S32D0000EEC00FCD0FC40FCD0FC40FCD0FC495E8070084E8070007F24440294B0593FF23049307F581630393012344
S32D0000EEE8029301230193782300932823032201210AF0DAF907F5A27302241D46002C05DB284609F002FFEC35F3
S32D0000EF10013CF7E707F61813A3F501631B4A1C4615460FCD0FC40FCD0FC40FCD0FC495E8070084E8070007F572
S32D0000EF38A270114B0593FF23049307F5847303930123029301230193282300937823032201210AF0A9F907F19E
S32D0000EF601C0300241D46002C12DB284609F0D1FEEC35013CF7E700BFDC190020CCB0020000D7FF0000AA02007E
S32D0000EF88E0B002001CB1020007F61813A3F511638A4A1C4615460FCD0FC42B68236007F11C00874B05934FF4AF
S32D0000EFB07F03049307F108030393012302930123019302230093C923012201210AF070F90A217E4807F0AEFF2F
S32D0000EFD80523C7F814394FF00003C7F810394FF00003C7F80C394FF00003C7F80839D7F81439052B40F0DA802F
S32D0000F00073480AF061FA04460D46D7F8100913F05DF802460B462046294612F0F7FE02460B461046194613F03F
S32D0000F0288BFB024607F5A273114618460AF07AF865480AF081FA04460D46D7F80C0913F041F802460B462046DC
S32D0000F050294612F0DBFE02460B461046194613F06FFB024607F5A273EC33114618460AF05DF857480AF0A0FADE
S32D0000F07804460D46D7F8080913F024F802460B462046294612F0BEFE02460B461046194613F052FB024607F5C0
S32D0000F0A0A27303F5EC73114618460AF03FF83A463B1D1946474808F003FD0346002B9AD007F61813A3F614136C
S32D0000F0C8196807F61813A3F618131A6807F11C00002309F02FFF0346002B14BF01230023DBB2002B37D007F683
S32D0000F0F01813A3F61413196807F61813A3F618131A6807F11C03184609F0B6FF07F11C03184609F0CDFE2E4846
S32D0000F1180AF0D6F902460B461046194613F00CFB0346C7F8103928480AF006FA02460B461046194613F000FBA1
S32D0000F1400346C7F80C3922480AF036FA02460B461046194613F0F4FA0346C7F8083907F61813A3F614131968CF
S32D0000F16807F61813A3F618131A6807F21C70002309F0E0FE0346002B14BF01230023DBB2002B3FF434AF07F633
S32D0000F1901813A3F61413196807F61813A3F618131A6807F21C73184609F066FF0023C7F8143920E7D7F81439E1
S32D0000F1B8184607F61817BD46B0BD00BF58B1020000D7FF00D8190020241A0020DC190020B0B5ADF5E56D06AFFD
S32D0000F1E00021B94808F03FFB07F21C6300241D46002C05DB284609F08CFDEC35013CF7E707F5E263A3F58473A6
S32D0000F208B04A1C4615460FCD0FC42B68236007F21C60AD4B05936FF07F43049307F5C16303930123029301230C
S32D0000F2300193C92300930123012201210AF038F807F21C5300241D46002C05DB284609F060FDEC35013CF7E70F
S32D0000F25807F5E263A3F502739C4A1C4615460FCD0FC42B68236007F21C50974B05936FF07F43049307F5A1633B
S32D0000F28003934FF48273029301230193C92300930123012201210AF00BF807F5AC7303241D46002C05DB284641
S32D0000F2A809F033FDEC35013CF7E707F5E263A3F5C163874A1846114650231A4615F0C8FA07F5AC70804B05933B
S32D0000F2D0FF23049307F5847303930123029301230193A123009328230222022109F0E0FF07F11C0300241D46FE
S32D0000F2F8002C05DB284609F008FDEC35013CF7E707F5E263A3F5E163724A1C4615460FCD0FC42B68236007F1E1
S32D0000F3201C006B4B05934FF47F03049307F10803039301230293012301937923009350230122012109F0B4FF5C
S32D0000F3480A21654807F0F2FD0623C7F80C370023C7F80837642006F0DFFDD7F80C37062B40F046813A463B1D25
S32D0000F3701946554808F0A4FB0346002BF1D007F5E263A3F20C731A6807F5AC73EC331146184609F0CBFE07F523
S32D0000F398E263A3F5E2631A6807F5AC7303F531731146184609F0BEFE07F5E263A3F20C73196807F5E263A3F5D3
S32D0000F3C0E2631A6807F11C00002309F0B7FD0346002B14BF01230023DBB2002B00F0E18007F5E263A3F20C7388
S32D0000F3E8196807F5E263A3F5E2631A6807F11C03184609F03DFE07F11C03184609F054FDD7F80837002B69D1FB
S32D0000F41000212D4808F027FA07F21C602C4B05936FF07F43049307F5C1630393012302930123019350230093B6
S32D0000F43879230122012109F037FF07F21C50224B05936FF07F43049307F5A16303934FF4827302930123019359
S32D0000F4605123009379230122012109F021FF07F5AC70174B0593FF23049307F5847303930123029301230193B8
S32D0000F48828230093A1230222022109F00DFF07F11C000D4B05934FF47F03049307F10803039301230293012392
S32D0000F4B0019302230093C9230122012109F0F8FE0123C7F808376CE0DC1900206CB1020000D7FF0000AA02009E
S32D0000F4D880B10200D0B10200D8190020D7F80837012B5AD10021464808F0B9F907F21C60444B05936FF07F43C4
S32D0000F500049307F5C16303930123029301230193C923009301230122012109F0C9FE07F21C503A4B05936FF096
S32D0000F5287F43049307F5A16303934FF48273029301230193C923009301230122012109F0B3FE07F5AC702F4B1D
S32D0000F5500593FF23049307F5847303930123029301230193A123009328230222022109F09FFE07F11C00254B3F
S32D0000F57805934FF47F03049307F10803039301230293012301937923009350230122012109F08AFE0023C7F81D
S32D0000F5A0083707F5E263A3F20C73196807F5E263A3F5E2631A6807F21C50002309F0BEFC0346002B14BF0123E2
S32D0000F5C80023DBB2002B3FF4C8AE07F5E263A3F20C73196807F5E263A3F5E2631A6807F21C53184609F044FD1B
S32D0000F5F00023C7F80C37B4E6D7F80C37184607F5E267BD46B0BD00BFDC19002000D7FF00B0B5ADF5205D8EB09D
S32D0000F61806AF07F5205303F108030021184607F063F807F5205303F104030121184607F05BF807F5205302210A
S32D0000F640184607F055F807F51F5303F13C030321184607F04DF807F51F5303F138030421184607F045F807F54B
S32D0000F6681F5303F134030521184607F03DF807F51F5303F130030621184607F035F807F51F5303F12C03072130
S32D0000F690184607F02DF807F51F5303F128030821184607F025F807F51F5303F124030921184607F01DF807F591
S32D0000F6B81F5303F120030A21184607F015F807F51F5303F11C030B21184607F00DF807F51F5303F118030C215D
S32D0000F6E0184607F005F807F51F5303F114030D21184606F0FDFF07F51F5303F110030E21184606F0F5FF07F5CB
S32D0000F7081F5303F10C030F21184606F0EDFF07F51F5303F108031021184606F0E5FF07F51F5303F1040311217D
S32D0000F730184606F0DDFF07F51F531221184606F0D7FF07F51E5303F13C031321184606F0CFFF07F51E5303F159
S32D0000F75838031421184606F0C7FF07F51E5303F134031521184606F0BFFF07F51E5303F130031621184606F0FA
S32D0000F780B7FF07F51E5303F12C031721184606F0AFFF07F51E5303F128031821184606F0A7FF07F51E5303F1BB
S32D0000F7A824031921184606F09FFF07F51E5303F120031A21184606F097FF07F51E5303F11C031B21184606F027
S32D0000F7D08FFF07F51E5303F118031C21184606F087FF07F51E5303F114031D21184606F07FFF07F51E5303F101
S32D0000F7F810031E21184606F077FF07F51E5303F10C031F21184606F06FFF0021C74808F026F807F51A5303F1B2
S32D0000F820200300241D46002C05DB284609F071FAEC35013CF7E707F5205303F12003A3F5CA73BD4A1C461546D7
S32D0000F8480FCD0FC42B68236007F51A5000F12000B84B05936FF07F43049307F51A5303F10C0303930123029348
S32D0000F87001230193C923009301230122012109F017FD07F5165303F1200300241D46002C05DB284609F03DFA10
S32D0000F898EC35013CF7E707F5205303F12003A3F52573A54A1C4615460FCD0FC42B68236007F5165000F120006C
S32D0000F8C09E4B05936FF07F43049307F5165303F10C0303934FF48273029301230193C923009301230122012176
S32D0000F8E809F0E2FC07F5075303F11C0303241D46002C05DB284609F008FAEC35013CF7E707F5205303F12003F1
S32D0000F910A3F294638B4A1846114650231A4614F09BFF07F5075000F11C00844B05934FF47F03049307F50653CA
S32D0000F93803F10C0303930123029301230193A123009328230422012109F0AEFC07F5025303F1200300241D461B
S32D0000F960002C05DB284609F0D4F9EC35013CF7E707F5205303F12003A3F29473724A1C4615460FCD0FC42B6820
S32D0000F988236007F5025000F120006A4B05934FF47F03049307F5025303F10C0303930123029301230193032345
S32D0000F9B00093A1230122012109F07AFC07F5C95303F10C0307241D46002C05DB284609F0A0F9EC35013CF7E72D
S32D0000F9D807F5205303F12003A3F69473594A18461146A0231A4614F033FF07F58A53143B07241D46002C05DB68
S32D0000FA00284609F086F9EC35013CF7E707F5C153A3F294734E4A18461146A0231A4614F01BFF07F51463143BBA
S32D0000FA2807241D46002C05DB284609F06EF9EC35013CF7E707F5C153A3F69473434A18461146A0231A4614F0F3
S32D0000FA5003FF07F5B073343B07241D46002C05DB284609F056F9EC35013CF7E707F50263A3F29473384A18468F
S32D0000FA781146A0231A4614F0EBFE0A21354807F055FA072307F5205202F11C021360002307F5205202F1180251
S32D0000FAA0136007F50263A3F61C03184680231A46002114F0E7FF07F5205303F11C031B68072B40F089870023A6
S32D0000FAC807F5205202F11402136007F5205303F114031B68072B3FDC07F50263A3F61C0307F5205202F114024C
S32D0000FAF0126853F82230012B0FD107F5C95202F10C0207F5205303F114031B68EC2101FB03F31344184609F003
S32D0000FB18CBF907F5205303F114031B68013307F5205202F114021360CFE700BFDC190020E4B1020000D7FF00E9
S32D0000FB4000AA020068AB0200F8B102000CB20200ACB202004CB30200ECB30200D8190020002307F5205202F1D4
S32D0000FB681402136007F5205303F114031B68072B28DC07F50263A3F61C0307F5205202F114021268083253F824
S32D0000FB902230012B0ED107F58A53143B07F5205202F114021268EC2101FB02F21344184609F07EF907F5205340
S32D0000FBB803F114031B68013307F5205202F114021360CFE7002307F5205202F11402136007F5205303F1140336
S32D0000FBE01B68072B28DC07F50263A3F61C0307F5205202F114021268103253F82230012B0ED107F51463143B88
S32D0000FC0807F5205202F114021268EC2101FB02F21344184609F048F907F5205303F114031B68013307F5205252
S32D0000FC3002F114021360CFE7002307F5205202F11402136007F5205303F114031B68072B28DC07F50263A3F63A
S32D0000FC581C0307F5205202F114021268183253F82230012B0ED107F5B073343B07F5205202F114021268EC21F0
S32D0000FC8001FB02F21344184609F012F907F5205303F114031B68013307F5205202F114021360CFE707F520536D
S32D0000FCA803F118031B68032B00F24D8101A252F823F000BFCDFC00006BFD000007FE0000A1FE000007F5C95005
S32D0000FCD000F10C009C4B0593FF23049307F5C45303F10C030393012302930123019350230093502304220221F2
S32D0000FCF809F0DAFA002307F5205202F11402136007F5205303F114031B68072B00F3118107F50263A3F61C0337
S32D0000FD2007F5205202F11402126853F82230012B0FD107F5C95202F10C0207F5205303F114031B68EC2101FBFD
S32D0000FD4803F31344184609F067F807F5205303F114031B68013307F5205202F114021360CEE707F58A50143898
S32D0000FD70754B0593FF23049307F58553143B039301230293012301935023009350230422022109F08DFA0023C5
S32D0000FD9807F5205202F11402136007F5205303F114031B68072B00F3C68007F50263A3F61C0307F5205202F171
S32D0000FDC014021268083253F82230012B0FD107F5C95202F10C0207F5205303F114031B68EC2101FB03F3134437
S32D0000FDE8184609F019F807F5205303F114031B68013307F5205202F114021360CDE707F5146014384E4B0593C9
S32D0000FE10FF23049307F50A63143B039301230293012301935023009350230422022109F03FFA002307F52052C7
S32D0000FE3802F11402136007F5205303F114031B68072B7ADC07F50263A3F61C0307F5205202F11402126810324F
S32D0000FE6053F82230012B0FD107F5C95202F10C0207F5205303F114031B68EC2101FB03F31344184608F0CCFF3F
S32D0000FE8807F5205303F114031B68013307F5205202F114021360CEE707F5B0703438284B0593FF23049307F138
S32D0000FEB0A003143B039301230293012301935023009350230422022109F0F2F9002307F5205202F11402136078
S32D0000FED807F5205303F114031B68072B32DC07F50263A3F61C0307F5205202F114021268183253F82230012BA2
S32D0000FF000FD107F5C95202F10C0207F5205303F114031B68EC2101FB03F31344184608F07FFF07F5205303F151
S32D0000FF2814031B68013307F5205202F114021360CEE700BF07E000BF05E000BF03E000BF00D7FF0000BF07F502
S32D0000FF50205303F118031B6807F5205202F10C02136007F5205303F118031A6807F5205303F10C031B689A42CB
S32D0000FF787FF49DAD07F5205303F118031B68002B40F0978007F1A0021C3A07F1A003183B1946984807F090FD8A
S32D0000FFA00346002B00F07082002307F5205202F11002136007F5205303F110031B68072B00F3628207F5C952BB
S32D0000FFC802F10C0207F5205303F110031B68EC2101FB03F3D01807F50263A3F5F363196807F50263A3F29C7355
S32D0000FFF01A68002308F0A2FF0346002B14BF01230023DBB2002B4CD007F5C95202F10C0207F5205303F11003B5
S32D000100181B68EC2101FB03F3D01807F50263A3F5F363196807F50263A3F29C731B681A4609F01EF807F5026327
S32D00010040A3F61C0307F5205202F11002126853F82230002B0CD107F50263A3F61C0307F5205202F11002126841
S32D00010068012143F8221018E007F50263A3F61C0307F5205202F11002126853F82230012B0BD107F50263A3F63D
S32D000100901C0307F5205202F110021268002143F8221007F5205303F110031B68013307F5205202F11002136094
S32D000100B87CE707F5205303F118031B68012B40F09B8007F1A0021C3A07F1A003183B1946484807F0F1FC034644
S32D000100E0002B00F0D181002307F5205202F11002136007F5205303F110031B68072B00F3C38107F58A53143BF1
S32D0001010807F5205202F110021268EC2101FB02F2981807F50263A3F5F363196807F50263A3F29C731A680023B4
S32D0001013008F004FF0346002B14BF01230023DBB2002B4FD007F58A53143B07F5205202F110021268EC2101FB22
S32D0001015802F2981807F50263A3F5F363196807F50263A3F29C731B681A4608F081FF07F50263A3F61C0307F58F
S32D00010180205202F110021268083253F82230002B0DD107F50263A3F61C0307F5205202F110021268083201211D
S32D000101A843F822101AE007F50263A3F61C0307F5205202F110021268083253F82230012B0CD107F50263A3F6E1
S32D000101D01C0307F5205202F1100212680832002143F8221007F5205303F110031B68013307F5205202F110028C
S32D000101F813607AE7DC19002007F5205303F118031B68022B40F0998007F1A0021C3A07F1A003183B194699485A
S32D0001022007F04EFC0346002B00F02E81002307F5205202F11002136007F5205303F110031B68072B00F3208193
S32D0001024807F51463143B07F5205202F110021268EC2101FB02F2981807F50263A3F5F363196807F50263A3F265
S32D000102709C731A68002308F061FE0346002B14BF01230023DBB2002B4FD007F51463143B07F5205202F11002BA
S32D000102981268EC2101FB02F2981807F50263A3F5F363196807F50263A3F29C731B681A4608F0DEFE07F5026323
S32D000102C0A3F61C0307F5205202F110021268103253F82230002B0DD107F50263A3F61C0307F5205202F11002F6
S32D000102E812681032012143F822101AE007F50263A3F61C0307F5205202F110021268103253F82230012B0CD1B4
S32D0001031007F50263A3F61C0307F5205202F1100212681032002143F8221007F5205303F110031B68013307F5BF
S32D00010338205202F1100213607AE707F5205303F118031B68032B40F09B8007F1A0021C3A07F1A003183B194694
S32D00010360484807F0ADFB0346002B00F08D80002307F5205202F11002136007F5205303F110031B68072B7FDC3F
S32D0001038807F5B073343B07F5205202F110021268EC2101FB02F2981807F50263A3F5F363196807F50263A3F258
S32D000103B09C731A68002308F0C1FD0346002B14BF01230023DBB2002B4FD007F5B073343B07F5205202F110024E
S32D000103D81268EC2101FB02F2981807F50263A3F5F363196807F50263A3F29C731B681A4608F03EFE07F5026382
S32D00010400A3F61C0307F5205202F110021268183253F82230002B0DD107F50263A3F61C0307F5205202F11002AC
S32D0001042812681832012143F822101AE007F50263A3F61C0307F5205202F110021268183253F82230012B0CD162
S32D0001045007F50263A3F61C0307F5205202F1100212681832002143F8221007F5205303F110031B68013307F576
S32D00010478205202F1100213607BE700BFDC19002007F1A0021C3A07F1A003183B19463B4807F012FB0346002BFD
S32D000104A03FF45FAD002307F5205202F11402136007F5205303F114031B68032B64DC07F5075202F11C0207F514
S32D000104C8205303F114031B68EC2101FB03F3D01807F50263A3F5F363196807F50263A3F29C731A68002308F0AB
S32D000104F025FD0346002B14BF01230023DBB2002B33D007F5075202F11C0207F5205303F114031B68EC2101FB06
S32D0001051803F3D01807F50263A3F5F363196807F50263A3F29C731B681A4608F0A1FD07F5075202F11C0207F526
S32D00010540205303F114031B68EC2101FB03F31344184608F0ADFC07F5205303F114031B6807F5205202F11802BE
S32D00010568136007F5205303F114031B68013307F5205202F11402136096E700BFDC19002007F50263A3F5F36336
S32D00010590196807F50263A3F29C731A6807F5025000F12000002308F0C9FC0346002B14BF01230023DBB2002BAF
S32D000105B800F0D48107F50263A3F5F363196807F50263A3F29C731A6807F5025303F12003184608F04DFD07F574
S32D000105E0025303F12003184608F062FC07F50263A3F61C031B68012B06D107F5205303F10803184606F03EFA33
S32D0001060807F50263A3F61C035B68012B06D107F5205303F10403184606F030FA07F50263A3F61C039B68012BB4
S32D0001063004D107F52053184606F024FA07F50263A3F61C03DB68012B06D107F51F5303F13C03184606F016FA81
S32D0001065807F50263A3F61C031B69012B06D107F51F5303F13803184606F008FA07F50263A3F61C035B69012BD7
S32D0001068006D107F51F5303F13403184606F0FAF907F50263A3F61C039B69012B06D107F51F5303F13003184681
S32D000106A806F0ECF907F50263A3F61C03DB69012B06D107F51F5303F12C03184606F0DEF907F50263A3F61C0313
S32D000106D01B6A012B06D107F51F5303F12803184606F0D0F907F50263A3F61C035B6A012B06D107F51F5303F186
S32D000106F82403184606F0C2F907F50263A3F61C039B6A012B06D107F51F5303F12003184606F0B4F907F5026395
S32D00010720A3F61C03DB6A012B06D107F51F5303F11C03184606F0A6F907F50263A3F61C031B6B012B06D107F598
S32D000107481F5303F11803184606F098F907F50263A3F61C035B6B012B06D107F51F5303F11403184606F08AF9EA
S32D0001077007F50263A3F61C039B6B012B06D107F51F5303F11003184606F07CF907F50263A3F61C03DB6B012B6F
S32D0001079806D107F51F5303F10C03184606F06EF907F50263A3F61C031B6C012B06D107F51F5303F108031846C1
S32D000107C006F060F907F50263A3F61C035B6C012B06D107F51F5303F10403184606F052F907F50263A3F61C03B7
S32D000107E89B6C012B04D107F51F53184606F046F907F50263A3F61C03DB6C012B06D107F51E5303F13C03184678
S32D0001081006F038F907F50263A3F61C031B6D012B06D107F51E5303F13803184606F02AF907F50263A3F61C03C2
S32D000108385B6D012B06D107F51E5303F13403184606F01CF907F50263A3F61C039B6D012B06D107F51E5303F140
S32D000108603003184606F00EF907F50263A3F61C03DB6D012B06D107F51E5303F12C03184606F000F907F5026339
S32D00010888A3F61C031B6E012B06D107F51E5303F12803184606F0F2F807F50263A3F61C035B6E012B06D107F552
S32D000108B01E5303F12403184606F0E4F807F50263A3F61C039B6E012B06D107F51E5303F12003184606F0D6F892
S32D000108D807F50263A3F61C03DB6E012B06D107F51E5303F11C03184606F0C8F807F50263A3F61C031B6F012B29
S32D0001090006D107F51E5303F11803184606F0BAF807F50263A3F61C035B6F012B06D107F51E5303F114031846B3
S32D0001092806F0ACF807F50263A3F61C039B6F012B06D107F51E5303F11003184606F09EF807F50263A3F61C0369
S32D00010950DB6F012B06D107F51E5303F10C03184606F090F807F50263A3F5F363196807F50263A3F29C731A6888
S32D0001097807F5165000F12000002308F0DBFA0346002B14BF01230023DBB2002B3FF4E5AA07F50263A3F5F36396
S32D000109A0196807F50263A3F29C731A6807F5165303F12003184608F05FFB002307F5205202F11C0213604FF0A0
S32D000109C8FF3307F5205202F118021360FFF7C5BA07F5205303F108030021184605F052FF07F5205303F10403CE
S32D000109F00021184605F04AFF07F520530021184605F044FF07F51F5303F13C030021184605F03CFF07F51F5337
S32D00010A1803F138030021184605F034FF07F51F5303F134030021184605F02CFF07F51F5303F13003002118468D
S32D00010A4005F024FF07F51F5303F12C030021184605F01CFF07F51F5303F128030021184605F014FF07F51F53CD
S32D00010A6803F124030021184605F00CFF07F51F5303F120030021184605F004FF07F51F5303F11C0300211846C9
S32D00010A9005F0FCFE07F51F5303F118030021184605F0F4FE07F51F5303F114030021184605F0ECFE07F51F5320
S32D00010AB803F110030021184605F0E4FE07F51F5303F10C030021184605F0DCFE07F51F5303F108030021184607
S32D00010AE005F0D4FE07F51F5303F104030021184605F0CCFE07F51F530021184605F0C6FE07F51E5303F13C0333
S32D00010B080021184605F0BEFE07F51E5303F138030021184605F0B6FE07F51E5303F134030021184605F0AEFE12
S32D00010B3007F51E5303F130030021184605F0A6FE07F51E5303F12C030021184605F09EFE07F51E5303F12803BE
S32D00010B580021184605F096FE07F51E5303F124030021184605F08EFE07F51E5303F120030021184605F086FE62
S32D00010B8007F51E5303F11C030021184605F07EFE07F51E5303F118030021184605F076FE07F51E5303F11403FA
S32D00010BA80021184605F06EFE07F51E5303F110030021184605F066FE07F51E5303F10C030021184605F05EFEB2
S32D00010BD007F5205303F11C031B68184607F520572037BD46B0BD00BFB0B5ADF6281D06AF0021A94806F037FE5B
S32D00010BF8A84AA949A94809F031FEC7F808090021A34806F02CFEA64B1B68002B06D1A549A54809F029FBA24B7A
S32D00010C2001221A6000219C4806F01DFE07F61C0300241D46002C05DB284608F06AF8EC35013CF7E707F51163CF
S32D00010C48A3F58473994A1C4615460FCD0FC42B68236007F61C00964B05936FF07F43049307F60803039301237D
S32D00010C70029301230193C923009301230122012108F016FB07F21C7300241D46002C05DB284608F03EF8EC353F
S32D00010C98013CF7E707F51163A3F50273854A1C4615460FCD0FC42B68236007F21C70804B05936FF07F430493A4
S32D00010CC007F5E16303934FF48273029301230193C923009301230122012108F0E9FA07F2444302241D46002CB2
S32D00010CE805DB284608F011F8EC35013CF7E707F51163A3F5A163704A1C4615460FCD0FC40FCD0FC40FCD0FC4C2
S32D00010D1095E8070084E8070007F24440664B0593FF23049307F5816303930123029301230193782300932823DE
S32D00010D380322012108F0B8FA07F5A27302241D46002C05DB284607F0E0FFEC35013CF7E707F51163A3F6080361
S32D00010D60584A1C4615460FCD0FC40FCD0FC40FCD0FC495E8070084E8070007F5A2704E4B0593FF23049307F50D
S32D00010D888473039301230293012301932823009378230322012108F087FA07F11C0300241D46002C05DB2846ED
S32D00010DB007F0AFFFEC35013CF7E707F51163A3F60813414A1C4615460FCD0FC42B68236007F11C00384B0593D3
S32D00010DD84FF47F03049307F108030393012302930123019302230093C9230122012108F05BFA0A21334806F0B4
S32D00010E0099F80823C7F80C39D7F80C39082B40F091803A463B1D19461F4806F051FE0346002BF1D007F51163F3
S32D00010E28A3F60C13196807F51163A3F511631A6807F11C00002308F07DF80346002B14BF01230023DBB2002B7A
S32D00010E5045D007F51163A3F60C13196807F51163A3F511631A6807F11C00012308F066F80346002B14BF0123BE
S32D00010E780023DBB2002B29D00B4809F01FFC0346114AD7F80819054809F05AFEDDE700BFDC1900208CB4020004
S32D00010EA090B40200641A0020EC160020A0B40200441A0020B8B4020000D7FF0000AA0200CCB402001CB1020008
S32D00010EC808B50200D8190020ACB4020007F11C03184607F0E9FF07F51163A3F60C13196807F51163A3F5116350
S32D00010EF01A6807F21C70002308F020F80346002B14BF01230023DBB2002B3FF47DAF07F51163A3F60C1319684B
S32D00010F1807F51163A3F511631A6807F21C73184608F0A6F80023C7F80C3969E7D7F80819044809F075FDD7F843
S32D00010F400C39184607F51167BD46B0BD641A002080B582B000AF00237B607B68082BFCD801A252F823F000BFA0
S32D00010F688D0F0100950F01009D0F0100A50F0100AD0F0100B50F0100BD0F0100C50F0100CD0F0100FBF798FA31
S32D00010F9078601FE0FBF7B4FB78601BE0FBF712FE786017E0FCF704F9786013E0FDF70CF878600FE0FDF710FF99
S32D00010FB878600BE0FEF70CF9786007E0FEF724FB786003E0FFF70CFE786000BFC1E700BF80B500AF0F4BD3F8B8
S32D00010FE0A03003F48053002B14BF01230023DBB2002B10D0094BD3F8A030084A23F48053C2F8A030064809F06F
S32D0001100869FD064B1B68054A23F40053136000BF80BD00BF00C00440641A0020C0F00F4080B400AF124B4FF474
S32D0001103080725A63114B5B69104A43F4005353610E4B1B680D4A43F4005313600A4B0C4A1A630C4BD3F88831F7
S32D000110580A4A43F08063C2F88831084B9B68074A43F08063936000BFBD4680BC704700BF00C00440C0F00F4065
S32D0001108003010A0000E100E080B400AF334B00225A70324B98221A70304B9B79DBB203F01003002B14BF012320
S32D000110A80023DBB2002B00D0F2E72A4B9B79DBB29B08DBB203F00303022B14BF01230023DBB2002B00D0F0E7B0
S32D000110D0224B18221A71214B00225A71204B03F580531A461F4B53641C4B54225A711B4B9B79DBB203F02003EA
S32D000110F8002B0CBF01230023DBB2002B00D0F2E7144B9B79DBB203F04003002B0CBF01230023DBB2002B00D030
S32D00011120F2E70E4B1B78DBB20C4A03F03F03DBB213700A4B9B79DBB29B08DBB203F00303032B14BF012300234C
S32D00011148DBB2002B00D0F0E700231846BD4680BC704700BF00400640007004400000130180B500AF314B03F53D
S32D0001117080539B6B2F4A43F4785302F580529363FFF752FFFFF780FF2B4B58221A602A4B1B684FF47A7202FBF3
S32D0001119803F3284A1360274B1B681A46234B03F580535B6C1B0E03F00F030133B2FBF3F31A46214B1A601D4B55
S32D000111C003F58053DB6B1B4A43F0225302F58052D363184B03F580531B6B164A43F0006302F580521363174B98
S32D000111E84FF480721A61642004F082FD134B5B69124A23F010035361104B00221A600F4B10225A610E4806F04F
S32D00011210CDF905F0BDFC05F01BFD0C4804F0CEFD0B4809F04DFD4FF4FA6004F079FE00BF80BD00BF007004400E
S32D0001123828190020241900202C19002000D00340DC19002020190020101D002080B500AFFBF775F800BF80BD57
S32D0001126080B500AFFBF76FF800BF80BD80B500AFFBF769F800BF80BD80B500AFFBF763F800BF80BD80B500AFE2
S32D00011288FBF75DF800BF80BD80B500AFFBF757F800BF80BD80B500AFFBF751F800BF80BD80B500AFFBF74BF89F
S32D000112B000BF80BD80B500AFFBF745F800BF80BD80B500AFFBF73FF800BF80BD80B500AFFBF739F800BF80BDF8
S32D000112D880B500AFFBF733F800BF80BD80B500AFFBF72DF800BF80BD80B500AFFBF727F800BF80BD80B500AF1E
S32D00011300FBF721F800BF80BD80B500AFFBF71BF800BF80BD80B500AFFBF715F800BF80BD80B500AFFBF70FF816
S32D0001132800BF80BD80B500AFFBF709F800BF80BD80B500AFFBF703F800BF80BD80B500AFFAF7FDFF00BF80BD2D
S32D0001135080B500AFFAF7F7FF00BF80BD80B500AFFAF7F1FF00BF80BD80B500AFFAF7EBFF00BF80BD80B500AF47
S32D00011378FAF7E5FF00BF80BD80B500AFFAF7DFFF00BF80BD80B500AFFAF7D9FF00BF80BD80B500AFFAF7D3FF76
S32D000113A000BF80BD80B500AFFAF7CDFF00BF80BD80B500AFFAF7C7FF00BF80BD80B500AFFAF7C1FF00BF80BD5D
S32D000113C880B500AFFAF7BBFF00BF80BD80B500AFFAF7B5FF00BF80BD80B500AFFAF7AFFF00BF80BD80B500AF83
S32D000113F0FAF7A9FF00BF80BD80B500AFFAF7A3FF00BF80BD80B500AFFAF79DFF00BF80BD80B500AFFAF797FFEE
S32D0001141800BF80BD80B500AFFAF791FF00BF80BD80B500AFFAF78BFF00BF80BD80B500AFFAF785FF00BF80BD98
S32D0001144080B500AFFAF77FFF00BF80BD80B500AFFAF779FF00BF80BD80B500AFFAF773FF00BF80BD80B500AFBE
S32D00011468FAF76DFF00BF80BD80B500AFFAF767FF00BF80BD80B500AFFAF761FF00BF80BD80B500AFFAF75BFF65
S32D0001149000BF80BD80B500AFFAF755FF00BF80BD80B500AFFAF74FFF00BF80BD80B500AFFAF749FF00BF80BDD4
S32D000114B880B500AFFAF743FF00BF80BD80B500AFFAF73DFF00BF80BD80B500AFFAF737FF00BF80BD80B500AFFA
S32D000114E0FAF731FF00BF80BD80B500AFFAF72BFF00BF80BD80B500AFFAF725FF00BF80BD80B500AFFAF71FFFDD
S32D0001150800BF80BD80B500AFFAF719FF00BF80BD80B500AFFAF713FF00BF80BD80B500AFFAF70DFF00BF80BD0F
S32D0001153080B500AFFAF707FF00BF80BD80B500AFFAF701FF00BF80BD80B500AFFAF7FBFE00BF80BD80B500AF36
S32D00011558FAF7F5FE00BF80BD80B500AFFAF7EFFE00BF80BD80B500AFFAF7E9FE00BF80BD80B500AFFAF7E3FE58
S32D0001158000BF80BD80B500AFFAF7DDFE00BF80BD80B500AFFAF7D7FE00BF80BD80B500AFFAF7D1FE00BF80BD4E
S32D000115A880B500AFFAF7CBFE00BF80BD80B500AFFAF7C5FE00BF80BD80B500AFFAF7BFFE00BF80BD80B500AF74
S32D000115D0FAF7B9FE00BF80BD80B500AFFAF7B3FE00BF80BD80B500AFFAF7ADFE00BF80BD80B500AFFAF7A7FED0
S32D000115F800BF80BD80B500AFFAF7A1FE00BF80BD80B500AFFAF79BFE00BF80BD80B500AFFAF795FE00BF80BD8A
S32D0001162080B500AFFAF78FFE00BF80BD80B500AFFAF789FE00BF80BD80B500AFFAF783FE00BF80BD80B500AFAF
S32D00011648FAF77DFE00BF80BD80B500AFFAF777FE00BF80BD80B500AFFAF771FE00BF80BD80B500AFFAF76BFE47
S32D0001167000BF80BD0000000080B584B000AFF8600B467A60FB72FB68FA7A1A71FB6800225A711749786811F054
S32D000116986DFB0346002B02D0134B7B600AE04FF07E51786811F04EFB0346002B02D04FF07E537B60786810F009
S32D000116C005FD09A3D3E9002310F058FD02460B461046194611F034F80246FB681A60FB6818461037BD4680BD31
S32D000116E8ABAAAAAAAAAA20400000404180B582B000AF78607B685B79002B09D07B6800225A717B6819791E23C6
S32D000117100022034804F08CFB00BF0837BD4680BD2019002080B584B000AF786039603B687F2B02DD7F23FB7366
S32D0001173808E03B6813F1800F02DA8023FB7301E03B68FB737B685B79FA7B9A4209D07B68FA7B5A717B6819790C
S32D00011760FA7B1E23034804F063FB00BF1037BD4680BD00BF20190020B0B584B000AF786039603749386811F0CF
S32D00011788D7FA0346002B02D0334B3B6008E03349386811F0EBFA0346002B01D02F4B3B60386810F08FFC044649
S32D000117B00D467B681B68184610F088FC4FF00002294B10F005FE02460B462046294610F0D5FC02460B46104689
S32D000117D8194610F0B1FF03463B604FF00001386811F0BAFA0346002B10D0386810F06AFC17A3D3E9002310F067
S32D00011800BDFC02460B461046194610F051FF0346FB6018E0386810F059FC4FF00002134B10F0ACFC02460B46F1
S32D00011828104619464FF000020D4B10F0CDFD02460B461046194610F037FF0346FB60F9687868FFF76BFF00BFF1
S32D000118501037BD46B0BD00BF52B81E85EB51F43F0000C8C20000C842000059400000604080B483B000AF0346AB
S32D000118780A46FB711346BB71BB79002B03D1134B00221A7002E0114B01221A703823FB710E4B1A78FB7913435C
S32D000118A0FB710D4B9B78DBB20B4A43F01003DBB29370094B9B78DBB2074A43F02003DBB29370054AFB79137118
S32D000118C800BF0C37BD4680BC704700BFF01600200060064080B483B000AF01237B607B68312B04DC00BF7B6898
S32D000118F001337B60F7E700BF0C37BD4680BC704780B584B000AF0346FB712A4B1B7800211846FFF7ADFF00F0FE
S32D000119188FF8274AFB79137100F08AF8244B9B78DBB2234A43F00403DBB29370204B39221A7100F07DF81E4BD9
S32D000119409B78DBB21C4A23F01003DBB293701A4B9B78DBB2184A43F00803DBB29370164B1B79FB720023FB60A7
S32D00011968FB6841F28732934203D8FB680133FB60F6E700F05DF80E4B9B78DBB20C4A23F02003DBB293700A4BD3
S32D000119909B78DBB2084A23F01003DBB29370064B1B79FB72FFF79AFFFB7A18461037BD4680BD00BFF11600205F
S32D000119B80060064080B582B000AF03460A46FB711346BB71134B1B7800211846FFF74CFF00F02EF8104AFB7925
S32D000119E0137100F029F80E4ABB79137100F024F80B4B9B78DBB20A4A23F02003DBB29370074B9B78DBB2064AD5
S32D00011A0823F01003DBB29370FFF764FF00BF0837BD4680BDF11600200060064080B400AF024B1B781846BD4671
S32D00011A3080BC7047F216002080B483B000AF174B1B78002B24D100237B60154BDB78DBB203F00203002B0CBF15
S32D00011A5801230023DBB2002B0DD07B6842F21072934203DD0B4B01221A7004E07B6801337B6000BFE5E7084B7E
S32D00011A80DB78DBB2064A43F00203DBB2D37000E000BF0C37BD4680BC704700BFF21600200060064080B582B033
S32D00011AA800AF0346FB71FB79184600F05FF800BF0837BD4680BD80B582B000AF03460A46FB711346BB7100F0C4
S32D00011AD035F8FB795B00DBB21846FFF7E3FFBB791846FFF7DFFF00F037F800BF0837BD4680BD80B500AFFF2062
S32D00011AF800F03CF80346184680BD80B584B000AF0346FB7100F016F8FB795B005BB243F001035BB2DBB21846E1
S32D00011B20FFF7C0FFFFF7E5FF0346FB7300F014F8FB7B18461037BD4680BD000080B400AF044B9B68034A43F440
S32D00011B488013936000BFBD4680BC704740F00F4080B400AF044B5B68034A43F48013536000BFBD4680BC704740
S32D00011B7040F00F4080B485B000AF0346FB710023BB73164BDB6A03F00043012B0CBF01230023DBB2002B03D004
S32D00011B98FB7B0133FB73F0E70E4BDB6A0D4A43F00043D3620B4AFB7953630A4BDB6A03F40033002B0CBF012332
S32D00011BC00023DBB2002B00D0F3E7044B9B6BBB73BB7B18461437BD4680BC704700C00A4080B582B000AF204B8E
S32D00011BE803F580531B6B1E4A43F4805302F5805213631C4B4FF480721A651B4B5B691A4A43F480135361FFF7AF
S32D00011C10A3FF164B4FF400725A65144B4FF400729A65124B4FF40072DA65124B124A1A60104B124ADA60002383
S32D00011C387B607B68092B06DCFF20FFF72FFF7B6801337B60F5E704A1D1E9000104F07AF900BF0837BD4680BD93
S32D00011C609A9999999999B93F0070044000A0044040F00F4000C00A40000C00800500003E90B486B000AFF86055
S32D00011C88B9607A60FB68534A93420AD1524B03F580535B6B504A43F4806302F58052536345E0FB684D4A934235
S32D00011CB00AD14B4B03F580535B6B494A43F4006302F58052536336E0FB68474A93420AD1434B03F580535B6B7E
S32D00011CD8414A43F4805302F58052536327E0FB68404A93420AD13C4B03F580535B6B3A4A43F4005302F5805236
S32D00011D00536318E0FB683A4A93420AD1344B03F580539B6A324A43F4806302F58052936209E02F4B03F580539E
S32D00011D289B6A2D4A43F4006302F580529362FB68DB78DBB223F00C03DAB2FB68DA70FB6800229A70BB684FF425
S32D00011D507A7203FB02F27B681B0192FBF3F39CB2FB681B78DBB223F01F03FB75230A9BB2DBB203F01F03DAB2F6
S32D00011D78FB7D1343DAB2FB681A70E2B2FB685A70BB684FF4FA4203FB02F27B681B0192FBF3F39AB263019BB231
S32D00011DA0D31A9CB2FB689B7ADBB223F01F03FB75E3B203F01F03DAB2FB7D1343DAB2FB689A72FB68DB78DBB2ED
S32D00011DC843F00C03DAB2FB68DA7000BF1837BD4690BC704700A006400070044000B0064000C0064000D00640B1
S32D00011DF000A00E4080B483B000AF78607B681B79DBB203F02003002B0CBF01230023DBB2002B00D0F2E77B684D
S32D00011E18DB79DBB218460C37BD4680BC704780B483B000AF78600B46FB707B681B79DBB25BB2DB43DBB2DB09D9
S32D00011E40DBB2002B00D0F4E77B68FA78DA7100BF0C37BD4680BC704780B487B000AFF860B9607A60FB687B61D4
S32D00011E68BB683B617B685A1E7A60002B14BF01230023DBB2002B08D03A69531C3B617B69591C796112781A708D
S32D00011E90ECE700BF1C37BD4680BC704780B487B000AFF860B9607A60FB687B617B685A1E7A60002B14BF01234D
S32D00011EB80023DBB2002B06D07B695A1C7A61BA68D2B21A70EEE700BF1C37BD4680BC704780B489B000AFF86094
S32D00011EE0B9607A60FB68FB61BB68BB6100237B617B685A1E7A60002B0FD0FB695A1CFA611B781946BB695A1CE3
S32D00011F08BA611B78CB1A7B617B69002B01D1012300E00023002B00D0E6E77B6918462437BD4680BC704780B4A4
S32D00011F3083B000AF786039607B681B78002B09D07B681B781A463B68934203D07B6801337B60F1E77B681B7854
S32D00011F5818460C37BD4680BC704780B584B000AF786039607B681B6BFB60FA683B689A4252D07B681B79002BD1
S32D00011F8035D07B6858787B6803F134010123FA6803F050FD0346002B14BF01230023DBB2002B01D001233CE051
S32D00011FA87B6800221A717B685A6A7B681B6A1344FA689A4217D27B68DB78FB72FB7A012B11D97B681B6AFA68F5
S32D00011FD01344FB607B6858787B6803F134010123FA6803F027FDFB7A013BFB72EAE73B68002B15D07B6858787F
S32D00011FF87B6803F1340101233A6803F033FC0346002B14BF01230023DBB2002B01D0012303E07B683A681A63A6
S32D00012020002318461037BD4680BD80B584B000AF786000217868FFF794FF0346FB73FB7B002B40F093807B6891
S32D000120481B78032B7DD17B685B79002B79D07B6800221A637B6834334FF4007200211846FFF718FF7B685522C8
S32D0001207083F832227B68AA2283F833227B68522283F834207B68522283F835207B68612283F836207B68412229
S32D0001209883F837207B68722283F818227B68722283F819227B68412283F81A227B68612283F81B227B681B696C
S32D000120C0DAB27B6883F81C227B681B699BB21B0A9BB2DAB27B6883F81D227B681B691B0CDAB27B6883F81E22C2
S32D000120E87B681B691B0EDAB27B6883F81F227B68DB68DAB27B6883F820227B68DB689BB21B0A9BB2DAB27B6868
S32D0001211083F821227B68DB681B0CDAB27B6883F822227B68DB681B0EDAB27B6883F823227B6858787B6803F15F
S32D0001213834017B685A69012303F078FC7B6800225A717B685B7800220021184603F03AFD0346002B14BF012356
S32D000121600023DBB2002B01D00123FB73FB7B18461037BD4680BD80B483B000AF786039603B68023B3B607B68D2
S32D00012188DB69023B3A689A4201D3002308E07B689B781A463B6803FB02F27B68DB6A134418460C37BD4680BC00
S32D000121B0704780B586B000AF786039603B68012B04D97B68DB693A689A4201D30123B5E07B681B78032B7AD0F2
S32D000121D8032B00F3AD80012B02D0022B4DD0A7E03B683B613B695B083A6913443B617B685A6A3B695B0A1344D8
S32D0001220019467868FFF7ADFE0346002B14BF01230023DBB2002B40F088803B69C3F308037A68134493F83430C4
S32D00012228FB603B6901333B617B685A6A3B695B0A134419467868FFF790FE0346002B14BF01230023DBB2002BA8
S32D000122506DD13B69C3F308037A68134493F834301B021A46FB681343FB603B6803F00103002B02D0FB681B09E5
S32D0001227860E0FB68C3F30B035CE07B685A6A3B681B0A134419467868FFF767FE0346002B14BF01230023DBB219
S32D000122A0002B46D13B685B0003F4FF7330337A68134404337B617B6901331B781B021AB27B691B781BB2134389
S32D000122C81BB29BB236E07B685A6A3B68DB09134419467868FFF741FE0346002B14BF01230023DBB2002B22D185
S32D000122F03B689B0003F4FE7330337A68134404337B617B6903331B781A067B6902331B781B0413437A69013266
S32D000123181278120213437A691278134323F0704308E000BF04E000BF02E000BF00E000BF4FF0FF331846183771
S32D00012340BD4680BD80B588B000AFF860B9607A60BB68012B04D9FB68DB69BA689A4202D30223FB77EEE0FB6859
S32D000123681B78032B00F09780032B00F3DA80012B02D0022B6BD0D4E0BB687B617B695B087A6913447B61FB682A
S32D000123905A6A7B695B0A13441946F868FFF7E1FD0346FB77FB7F002B40F0C2807B69C3F308033033FA68134494
S32D000123B80433BB61BB6803F00103002B0DD0BB691B785BB203F00F035AB27B68DBB21B015BB213435BB2DBB223
S32D000123E001E07B68DBB2BA6913707B6901337B61FB6801221A71FB685A6A7B695B0A13441946F868FFF7ADFDAC
S32D000124080346FB77FB7F002B40F090807B69C3F308033033FA6813440433BB61BB6803F00103002B03D07B68F6
S32D000124301B09DBB20CE0BB691B7823F00F03DAB27B681B0ADBB203F00F03DBB21343DBB2BA69137073E0FB6812
S32D000124585A6ABB681B0A13441946F868FFF77DFD0346FB77FB7F002B62D1BB685B0003F4FF733033FA6813442D
S32D000124800433BB617B68DAB2BB691A707B689BB21B0A9AB2BB690133D2B21A704FE0FB685A6ABB68DB09134402
S32D000124A81946F868FFF759FD0346FB77FB7F002B40D1BB689B0003F4FE733033FA6813440433BB61BB6903339A
S32D000124D01B781A06BB6902331B781B041343BA690132127812021343BA691278134303F070437A6813437B60C3
S32D000124F87B68DAB2BB691A707B689BB21B0A9AB2BB690133D2B21A707B681A0CBB690233D2B21A707B681A0E16
S32D00012520BB690333D2B21A7009E00223FB7706E000BF04E000BF02E000BF00E000BFFB6801221A71FB7F184633
S32D000125482037BD4680BD80B584B000AF786039603B68012B04D97B68DB693A689A4202D30223FB7338E0002350
S32D00012570FB737B68DB693A689A4231D239687868FFF717FEB860BB68002B26D0BB68012B02D10223FB7323E086
S32D00012598BB68B3F1FF3F02D10123FB731CE0002239687868FFF7CAFE0346FB73FB7B002B11D17B681B69B3F108
S32D000125C0FF3F07D07B681B695A1C7B681A617B6801225A71BB683B60CBE700BF00E000BFFB7B18461037BD46DF
S32D000125E880BD80B586B000AF786039603B68002B0DD17B68DB683B613B69002B04D07B68DB693A699A4215D35D
S32D0001261001233B6112E039687868FFF7CAFDB860BB68012B01D8012364E07B68DB69BA689A4201D2BB685DE0AB
S32D000126383B683B613B697B617B6901337B617B68DB697A699A4207D302237B617A693B699A4201D9002349E076
S32D0001266079697868FFF7A5FDB860BB68002B0ED0BB68B3F1FF3F02D0BB68012B01D1BB6838E07A693B699A4217
S32D00012688DAD1002332E000BF6FF0704279697868FFF754FE0346FB73FB7B002B09D13B68002B06D07A6939680F
S32D000126B07868FFF747FE0346FB73FB7B002B10D17B687A69DA607B681B69B3F1FF3F10D07B681B695A1E7B68BC
S32D000126D81A617B6801225A7107E0FB7B012B02D14FF0FF3300E001237B617B6918461837BD4680BD80B487B09E
S32D0001270000AF786039607B685B6A04333B613B685B0A7A6812689278B3FBF2F37B613B691A1D3A611B68FB60DE
S32D00012728FB68002B01D1002310E07A69FB689A4207D37A69FB68D31A7B613B6904333B61E9E700BF3B691A68D8
S32D000127507B69134418461C37BD4680BC704780B584B000AF78600B467B807B687A88DA807B689B68FB60FB6859
S32D00012778012B05D07B681B68DB69FA689A4201D3022364E0FB68002B08D17B681B681B78032B03D17B681B6844
S32D000127A09B6AFB60FB68002B13D17B68FA68DA607B681B681B897A889A4201D302234AE07B681B689A6A7B8841
S32D000127C81B091A447B681A6135E07B681B689B789BB21B017B817A887B899A421CD37B681B68F9681846FFF723
S32D000127F0E0FCF860FB68B3F1FF3F01D101232AE0FB68012B05D97B681B68DB69FA689A4201D302231FE07A88F2
S32D000128187B89D31A7B80DEE77B68FA68DA607B681B68F9681846FFF7A2FC02467B881B091A447B681A617B689A
S32D000128401B6803F134027B8803F00F035B011A447B685A61002318461037BD4680BD90B585B000AF78603960BA
S32D000128687B68DB8801333B813B89002B03D07B681B69002B01D10423C4E03B8903F00F03002B40F0B0807B68E3
S32D000128901B695A1C7B681A617B68DB68002B08D17B681B681B893A899A42C0F0A0800423ACE03B891B097A68A1
S32D000128B812689278013A1340002B40F094807B681A687B68DB6819461046FFF76EFCF860FB68012B01D80223EB
S32D000128E094E0FB68B3F1FF3F01D101238EE07B681B68DB69FA689A426DD33B68002B01D1042383E07B681A68F5
S32D000129087B68DB6819461046FFF76BFEF860FB68002B01D1072375E0FB68012B01D1022370E0FB68B3F1FF3F14
S32D0001293001D101236AE07B681B6800211846FFF710FB0346002B14BF01230023DBB2002B01D001235AE07B68FA
